{
  "_format": "hh-sol-artifact-1",
  "contractName": "Raffle",
  "sourceName": "contracts/Raffle.sol",
  "abi": [
    {
      "inputs": [
        {
          "internalType": "uint256",
          "name": "entranceFee",
          "type": "uint256"
        },
        {
          "internalType": "uint256",
          "name": "interval",
          "type": "uint256"
        },
        {
          "internalType": "address",
          "name": "vrfCoordinatorV2",
          "type": "address"
        },
        {
          "internalType": "bytes32",
          "name": "gasLane",
          "type": "bytes32"
        },
        {
          "internalType": "uint64",
          "name": "subscriptionId",
          "type": "uint64"
        },
        {
          "internalType": "uint32",
          "name": "callbackGasLimit",
          "type": "uint32"
        }
      ],
      "stateMutability": "nonpayable",
      "type": "constructor"
    },
    {
      "inputs": [
        {
          "internalType": "address",
          "name": "have",
          "type": "address"
        },
        {
          "internalType": "address",
          "name": "want",
          "type": "address"
        }
      ],
      "name": "OnlyCoordinatorCanFulfill",
      "type": "error"
    },
    {
      "inputs": [],
      "name": "Raffle__RaffleNotOpen",
      "type": "error"
    },
    {
      "inputs": [],
      "name": "Raffle__TransferFailed",
      "type": "error"
    },
    {
      "inputs": [
        {
          "internalType": "uint256",
          "name": "currentBalance",
          "type": "uint256"
        },
        {
          "internalType": "uint256",
          "name": "numPlayers",
          "type": "uint256"
        },
        {
          "internalType": "uint256",
          "name": "raffleState",
          "type": "uint256"
        }
      ],
      "name": "Raffle__UpkeepNotNeeded",
      "type": "error"
    },
    {
      "anonymous": false,
      "inputs": [
        {
          "indexed": true,
          "internalType": "address",
          "name": "player",
          "type": "address"
        }
      ],
      "name": "RaffleEnter",
      "type": "event"
    },
    {
      "anonymous": false,
      "inputs": [
        {
          "indexed": true,
          "internalType": "uint256",
          "name": "requestId",
          "type": "uint256"
        }
      ],
      "name": "RequestedRaffleWinner",
      "type": "event"
    },
    {
      "anonymous": false,
      "inputs": [
        {
          "indexed": true,
          "internalType": "address",
          "name": "player",
          "type": "address"
        }
      ],
      "name": "WinnerPicked",
      "type": "event"
    },
    {
      "inputs": [
        {
          "internalType": "bytes",
          "name": "",
          "type": "bytes"
        }
      ],
      "name": "checkUpkeep",
      "outputs": [
        {
          "internalType": "bool",
          "name": "upkeepNeeded",
          "type": "bool"
        },
        {
          "internalType": "bytes",
          "name": "",
          "type": "bytes"
        }
      ],
      "stateMutability": "view",
      "type": "function"
    },
    {
      "inputs": [],
      "name": "enterRaffle",
      "outputs": [],
      "stateMutability": "payable",
      "type": "function"
    },
    {
      "inputs": [
        {
          "internalType": "bytes",
          "name": "",
          "type": "bytes"
        }
      ],
      "name": "performUpkeep",
      "outputs": [],
      "stateMutability": "nonpayable",
      "type": "function"
    },
    {
      "inputs": [
        {
          "internalType": "uint256",
          "name": "requestId",
          "type": "uint256"
        },
        {
          "internalType": "uint256[]",
          "name": "randomWords",
          "type": "uint256[]"
        }
      ],
      "name": "rawFulfillRandomWords",
      "outputs": [],
      "stateMutability": "nonpayable",
      "type": "function"
    }
  ],
  "bytecode": "0x6101606040523480156200001257600080fd5b506040516200144b3803806200144b8339818101604052810190620000389190620001ac565b838073ffffffffffffffffffffffffffffffffffffffff1660808173ffffffffffffffffffffffffffffffffffffffff1660601b815250505085610120818152505060008060006101000a81548160ff02191690836001811115620000a257620000a1620002b4565b5b0217905550846101408181525050426002819055508373ffffffffffffffffffffffffffffffffffffffff1660a08173ffffffffffffffffffffffffffffffffffffffff1660601b815250508260c081815250508167ffffffffffffffff1660e08167ffffffffffffffff1660c01b815250508063ffffffff166101008163ffffffff1660e01b815250505050505050506200036a565b6000815190506200014a81620002e8565b92915050565b600081519050620001618162000302565b92915050565b60008151905062000178816200031c565b92915050565b6000815190506200018f8162000336565b92915050565b600081519050620001a68162000350565b92915050565b60008060008060008060c08789031215620001cc57620001cb620002e3565b5b6000620001dc89828a0162000167565b9650506020620001ef89828a0162000167565b95505060406200020289828a0162000139565b94505060606200021589828a0162000150565b93505060806200022889828a0162000195565b92505060a06200023b89828a016200017e565b9150509295509295509295565b6000620002558262000266565b9050919050565b6000819050919050565b600073ffffffffffffffffffffffffffffffffffffffff82169050919050565b6000819050919050565b600063ffffffff82169050919050565b600067ffffffffffffffff82169050919050565b7f4e487b7100000000000000000000000000000000000000000000000000000000600052602160045260246000fd5b600080fd5b620002f38162000248565b8114620002ff57600080fd5b50565b6200030d816200025c565b81146200031957600080fd5b50565b620003278162000286565b81146200033357600080fd5b50565b620003418162000290565b81146200034d57600080fd5b50565b6200035b81620002a0565b81146200036757600080fd5b50565b60805160601c60a05160601c60c05160e05160c01c6101005160e01c6101205161014051611074620003d7600039600061051d015260006101a001526000610413015260006103f0015260006103cf0152600061039301526000818160e0015261013401526110746000f3fe60806040526004361061003f5760003560e01c80631fe543e3146100445780632cfcc5391461006d5780634585e33b146100775780636e04ff0d146100a0575b600080fd5b34801561005057600080fd5b5061006b60048036038101906100669190610aec565b6100de565b005b61007561019e565b005b34801561008357600080fd5b5061009e60048036038101906100999190610a29565b6102de565b005b3480156100ac57600080fd5b506100c760048036038101906100c29190610a76565b6104db565b6040516100d5929190610c4b565b60405180910390f35b7f000000000000000000000000000000000000000000000000000000000000000073ffffffffffffffffffffffffffffffffffffffff163373ffffffffffffffffffffffffffffffffffffffff161461019057337f00000000000000000000000000000000000000000000000000000000000000006040517f1cf993f4000000000000000000000000000000000000000000000000000000008152600401610187929190610c22565b60405180910390fd5b61019a82826105c2565b5050565b7f00000000000000000000000000000000000000000000000000000000000000003410156101cb57600080fd5b600060018111156101df576101de610f68565b5b60008054906101000a900460ff1660018111156101ff576101fe610f68565b5b14610236576040517fd24a271400000000000000000000000000000000000000000000000000000000815260040160405180910390fd5b6001339080600181540180825580915050600190039060005260206000200160009091909190916101000a81548173ffffffffffffffffffffffffffffffffffffffff021916908373ffffffffffffffffffffffffffffffffffffffff1602179055503373ffffffffffffffffffffffffffffffffffffffff167f0805e1d667bddb8a95f0f09880cf94f403fb596ce79928d9f29b74203ba284d460405160405180910390a2565b60006102f8604051806020016040528060008152506104db565b50905080610365574760018054905060008054906101000a900460ff16600181111561032757610326610f68565b5b6040517f584327aa00000000000000000000000000000000000000000000000000000000815260040161035c93929190610cce565b60405180910390fd5b60016000806101000a81548160ff0219169083600181111561038a57610389610f68565b5b021790555060007f000000000000000000000000000000000000000000000000000000000000000073ffffffffffffffffffffffffffffffffffffffff16635d3b1d307f00000000000000000000000000000000000000000000000000000000000000007f000000000000000000000000000000000000000000000000000000000000000060037f000000000000000000000000000000000000000000000000000000000000000060016040518663ffffffff1660e01b8152600401610454959493929190610c7b565b602060405180830381600087803b15801561046e57600080fd5b505af1158015610482573d6000803e3d6000fd5b505050506040513d601f19601f820116820180604052508101906104a69190610abf565b9050807fcd6e45c8998311cab7e9d4385596cac867e20a0587194b954fa3a731c93ce78b60405160405180910390a250505050565b6000606060008060009054906101000a900460ff16600181111561050257610501610f68565b5b6000600181111561051657610515610f68565b5b14905060007f00000000000000000000000000000000000000000000000000000000000000006002544261054a9190610dae565b1190506000806001805490501190506000804711905082801561056a5750835b80156105735750805b801561057c5750815b9550856040518060400160405280600381526020017f30783000000000000000000000000000000000000000000000000000000000008152509550955050505050915091565b6000600180549050826000815181106105de576105dd610f97565b5b60200260200101516105f09190610ed9565b905060006001828154811061060857610607610f97565b5b9060005260206000200160009054906101000a900473ffffffffffffffffffffffffffffffffffffffff16905080600360006101000a81548173ffffffffffffffffffffffffffffffffffffffff021916908373ffffffffffffffffffffffffffffffffffffffff160217905550600067ffffffffffffffff81111561069157610690610fc6565b5b6040519080825280602002602001820160405280156106bf5781602001602082028036833780820191505090505b50600190805190602001906106d59291906107f4565b5060008060006101000a81548160ff021916908360018111156106fb576106fa610f68565b5b02179055504260028190555060008173ffffffffffffffffffffffffffffffffffffffff164760405161072d90610c0d565b60006040518083038185875af1925050503d806000811461076a576040519150601f19603f3d011682016040523d82523d6000602084013e61076f565b606091505b50509050806107aa576040517fa1d04b3900000000000000000000000000000000000000000000000000000000815260040160405180910390fd5b8173ffffffffffffffffffffffffffffffffffffffff167f5b690ec4a06fe979403046eaeea5b3ce38524683c3001f662c8b5a829632f7df60405160405180910390a25050505050565b82805482825590600052602060002090810192821561086d579160200282015b8281111561086c5782518260006101000a81548173ffffffffffffffffffffffffffffffffffffffff021916908373ffffffffffffffffffffffffffffffffffffffff16021790555091602001919060010190610814565b5b50905061087a919061087e565b5090565b5b8082111561089757600081600090555060010161087f565b5090565b60006108ae6108a984610d2a565b610d05565b905080838252602082019050828560208602820111156108d1576108d0610fff565b5b60005b8581101561090157816108e788826109ff565b8452602084019350602083019250506001810190506108d4565b5050509392505050565b600061091e61091984610d56565b610d05565b90508281526020810184848401111561093a57610939611004565b5b610945848285610e66565b509392505050565b600082601f83011261096257610961610ffa565b5b813561097284826020860161089b565b91505092915050565b60008083601f84011261099157610990610ffa565b5b8235905067ffffffffffffffff8111156109ae576109ad610ff5565b5b6020830191508360018202830111156109ca576109c9610fff565b5b9250929050565b600082601f8301126109e6576109e5610ffa565b5b81356109f684826020860161090b565b91505092915050565b600081359050610a0e81611027565b92915050565b600081519050610a2381611027565b92915050565b60008060208385031215610a4057610a3f61100e565b5b600083013567ffffffffffffffff811115610a5e57610a5d611009565b5b610a6a8582860161097b565b92509250509250929050565b600060208284031215610a8c57610a8b61100e565b5b600082013567ffffffffffffffff811115610aaa57610aa9611009565b5b610ab6848285016109d1565b91505092915050565b600060208284031215610ad557610ad461100e565b5b6000610ae384828501610a14565b91505092915050565b60008060408385031215610b0357610b0261100e565b5b6000610b11858286016109ff565b925050602083013567ffffffffffffffff811115610b3257610b31611009565b5b610b3e8582860161094d565b9150509250929050565b610b5181610de2565b82525050565b610b6081610df4565b82525050565b610b6f81610e00565b82525050565b6000610b8082610d87565b610b8a8185610d92565b9350610b9a818560208601610e75565b610ba381611013565b840191505092915050565b6000610bbb600083610da3565b9150610bc682611024565b600082019050919050565b610bda81610e0a565b82525050565b610be981610e38565b82525050565b610bf881610e42565b82525050565b610c0781610e52565b82525050565b6000610c1882610bae565b9150819050919050565b6000604082019050610c376000830185610b48565b610c446020830184610b48565b9392505050565b6000604082019050610c606000830185610b57565b8181036020830152610c728184610b75565b90509392505050565b600060a082019050610c906000830188610b66565b610c9d6020830187610bfe565b610caa6040830186610bd1565b610cb76060830185610bef565b610cc46080830184610bef565b9695505050505050565b6000606082019050610ce36000830186610be0565b610cf06020830185610be0565b610cfd6040830184610be0565b949350505050565b6000610d0f610d20565b9050610d1b8282610ea8565b919050565b6000604051905090565b600067ffffffffffffffff821115610d4557610d44610fc6565b5b602082029050602081019050919050565b600067ffffffffffffffff821115610d7157610d70610fc6565b5b610d7a82611013565b9050602081019050919050565b600081519050919050565b600082825260208201905092915050565b600081905092915050565b6000610db982610e38565b9150610dc483610e38565b925082821015610dd757610dd6610f0a565b5b828203905092915050565b6000610ded82610e18565b9050919050565b60008115159050919050565b6000819050919050565b600061ffff82169050919050565b600073ffffffffffffffffffffffffffffffffffffffff82169050919050565b6000819050919050565b600063ffffffff82169050919050565b600067ffffffffffffffff82169050919050565b82818337600083830152505050565b60005b83811015610e93578082015181840152602081019050610e78565b83811115610ea2576000848401525b50505050565b610eb182611013565b810181811067ffffffffffffffff82111715610ed057610ecf610fc6565b5b80604052505050565b6000610ee482610e38565b9150610eef83610e38565b925082610eff57610efe610f39565b5b828206905092915050565b7f4e487b7100000000000000000000000000000000000000000000000000000000600052601160045260246000fd5b7f4e487b7100000000000000000000000000000000000000000000000000000000600052601260045260246000fd5b7f4e487b7100000000000000000000000000000000000000000000000000000000600052602160045260246000fd5b7f4e487b7100000000000000000000000000000000000000000000000000000000600052603260045260246000fd5b7f4e487b7100000000000000000000000000000000000000000000000000000000600052604160045260246000fd5b600080fd5b600080fd5b600080fd5b600080fd5b600080fd5b600080fd5b6000601f19601f8301169050919050565b50565b61103081610e38565b811461103b57600080fd5b5056fea2646970667358221220d429feb8088fb83f53c6441fd912dc75565af6504ca7af18f5c833d6919bf1b164736f6c63430008070033",
  "linkReferences": {},
  "deployedLinkReferences": {}
}